{
  "contractName": "Lottery",
  "abi": [
    {
      "constant": true,
      "inputs": [],
      "name": "priorityitLimit",
      "outputs": [
        {
          "name": "",
          "type": "uint256"
        }
      ],
      "payable": false,
      "stateMutability": "view",
      "type": "function"
    },
    {
      "constant": true,
      "inputs": [
        {
          "name": "",
          "type": "uint256"
        }
      ],
      "name": "userAddress",
      "outputs": [
        {
          "name": "",
          "type": "address"
        }
      ],
      "payable": false,
      "stateMutability": "view",
      "type": "function"
    },
    {
      "constant": true,
      "inputs": [],
      "name": "BetETH",
      "outputs": [
        {
          "name": "",
          "type": "uint256"
        }
      ],
      "payable": false,
      "stateMutability": "view",
      "type": "function"
    },
    {
      "constant": true,
      "inputs": [
        {
          "name": "",
          "type": "address"
        }
      ],
      "name": "users",
      "outputs": [
        {
          "name": "userAddress",
          "type": "address"
        },
        {
          "name": "coinBuy",
          "type": "uint256"
        },
        {
          "name": "priority",
          "type": "uint256"
        },
        {
          "name": "ID",
          "type": "uint256"
        }
      ],
      "payable": false,
      "stateMutability": "view",
      "type": "function"
    },
    {
      "constant": true,
      "inputs": [],
      "name": "lotterySupplier",
      "outputs": [
        {
          "name": "",
          "type": "address"
        }
      ],
      "payable": false,
      "stateMutability": "view",
      "type": "function"
    },
    {
      "inputs": [
        {
          "name": "_Guess",
          "type": "uint256"
        }
      ],
      "payable": false,
      "stateMutability": "nonpayable",
      "type": "constructor"
    },
    {
      "constant": true,
      "inputs": [
        {
          "name": "_user",
          "type": "address"
        }
      ],
      "name": "userCoin",
      "outputs": [
        {
          "name": "",
          "type": "uint256"
        }
      ],
      "payable": false,
      "stateMutability": "view",
      "type": "function"
    },
    {
      "constant": true,
      "inputs": [
        {
          "name": "_user",
          "type": "address"
        }
      ],
      "name": "userGuess",
      "outputs": [
        {
          "name": "",
          "type": "uint256[]"
        }
      ],
      "payable": false,
      "stateMutability": "view",
      "type": "function"
    },
    {
      "constant": true,
      "inputs": [
        {
          "name": "_user",
          "type": "address"
        }
      ],
      "name": "userID",
      "outputs": [
        {
          "name": "",
          "type": "uint256"
        }
      ],
      "payable": false,
      "stateMutability": "view",
      "type": "function"
    },
    {
      "constant": true,
      "inputs": [
        {
          "name": "_user",
          "type": "address"
        }
      ],
      "name": "userPriority",
      "outputs": [
        {
          "name": "",
          "type": "uint256"
        }
      ],
      "payable": false,
      "stateMutability": "view",
      "type": "function"
    },
    {
      "constant": true,
      "inputs": [],
      "name": "winningGuess",
      "outputs": [
        {
          "name": "",
          "type": "bytes32"
        }
      ],
      "payable": false,
      "stateMutability": "view",
      "type": "function"
    },
    {
      "constant": true,
      "inputs": [],
      "name": "debug",
      "outputs": [
        {
          "name": "",
          "type": "uint256"
        }
      ],
      "payable": false,
      "stateMutability": "view",
      "type": "function"
    },
    {
      "constant": false,
      "inputs": [],
      "name": "makeUser",
      "outputs": [],
      "payable": false,
      "stateMutability": "nonpayable",
      "type": "function"
    },
    {
      "constant": false,
      "inputs": [],
      "name": "addCoinsAndPriority",
      "outputs": [],
      "payable": true,
      "stateMutability": "payable",
      "type": "function"
    },
    {
      "constant": false,
      "inputs": [
        {
          "name": "_userGuess",
          "type": "uint256"
        }
      ],
      "name": "getGuess",
      "outputs": [],
      "payable": false,
      "stateMutability": "nonpayable",
      "type": "function"
    },
    {
      "constant": false,
      "inputs": [],
      "name": "closeGame",
      "outputs": [
        {
          "name": "",
          "type": "address"
        }
      ],
      "payable": false,
      "stateMutability": "nonpayable",
      "type": "function"
    },
    {
      "constant": false,
      "inputs": [],
      "name": "winnerAddress",
      "outputs": [
        {
          "name": "",
          "type": "address"
        }
      ],
      "payable": false,
      "stateMutability": "nonpayable",
      "type": "function"
    },
    {
      "constant": false,
      "inputs": [],
      "name": "getPrice",
      "outputs": [
        {
          "name": "",
          "type": "uint256"
        }
      ],
      "payable": false,
      "stateMutability": "nonpayable",
      "type": "function"
    }
  ],
  "bytecode": "0x60806040526005600455600160055534801561001a57600080fd5b506040516020806111438339810180604052810190808051906020019092919050505033600260006101000a81548173ffffffffffffffffffffffffffffffffffffffff021916908373ffffffffffffffffffffffffffffffffffffffff160217905550806040518082815260200191505060405180910390206003816000191690555050611095806100ae6000396000f3006080604052600436106100f1576000357c0100000000000000000000000000000000000000000000000000000000900463ffffffff16806302310892146100f6578063588ee29b1461014d5780636b46d3961461017857806377311b16146101a3578063786b844b146101ad57806389743022146102045780639674a0ac1461029c57806398d5fdca1461030957806398da61af14610334578063a02fff3314610367578063a87430ba14610392578063bbf62c771461042a578063cbb3d74d14610481578063d18a524a146104d8578063e9e6de2a146104ef578063ed7a4e0b1461051c578063eda7794e14610573575b600080fd5b34801561010257600080fd5b50610137600480360381019080803573ffffffffffffffffffffffffffffffffffffffff1690602001909291905050506105ca565b6040518082815260200191505060405180910390f35b34801561015957600080fd5b50610162610615565b6040518082815260200191505060405180910390f35b34801561018457600080fd5b5061018d610622565b6040518082815260200191505060405180910390f35b6101ab610628565b005b3480156101b957600080fd5b506101c2610777565b604051808273ffffffffffffffffffffffffffffffffffffffff1673ffffffffffffffffffffffffffffffffffffffff16815260200191505060405180910390f35b34801561021057600080fd5b50610245600480360381019080803573ffffffffffffffffffffffffffffffffffffffff1690602001909291905050506107e2565b6040518080602001828103825283818151815260200191508051906020019060200280838360005b8381101561028857808201518184015260208101905061026d565b505050509050019250505060405180910390f35b3480156102a857600080fd5b506102c76004803603810190808035906020019092919050505061087b565b604051808273ffffffffffffffffffffffffffffffffffffffff1673ffffffffffffffffffffffffffffffffffffffff16815260200191505060405180910390f35b34801561031557600080fd5b5061031e6108b9565b6040518082815260200191505060405180910390f35b34801561034057600080fd5b50610349610aef565b60405180826000191660001916815260200191505060405180910390f35b34801561037357600080fd5b5061037c610af9565b6040518082815260200191505060405180910390f35b34801561039e57600080fd5b506103d3600480360381019080803573ffffffffffffffffffffffffffffffffffffffff169060200190929190505050610aff565b604051808573ffffffffffffffffffffffffffffffffffffffff1673ffffffffffffffffffffffffffffffffffffffff16815260200184815260200183815260200182815260200194505050505060405180910390f35b34801561043657600080fd5b5061043f610b4f565b604051808273ffffffffffffffffffffffffffffffffffffffff1673ffffffffffffffffffffffffffffffffffffffff16815260200191505060405180910390f35b34801561048d57600080fd5b506104c2600480360381019080803573ffffffffffffffffffffffffffffffffffffffff169060200190929190505050610b75565b6040518082815260200191505060405180910390f35b3480156104e457600080fd5b506104ed610bc0565b005b3480156104fb57600080fd5b5061051a60048036038101908080359060200190929190505050610cef565b005b34801561052857600080fd5b50610531610ec5565b604051808273ffffffffffffffffffffffffffffffffffffffff1673ffffffffffffffffffffffffffffffffffffffff16815260200191505060405180910390f35b34801561057f57600080fd5b506105b4600480360381019080803573ffffffffffffffffffffffffffffffffffffffff16906020019092919050505061101e565b6040518082815260200191505060405180910390f35b60008060008373ffffffffffffffffffffffffffffffffffffffff1673ffffffffffffffffffffffffffffffffffffffff168152602001908152602001600020600301549050919050565b6000600180549050905090565b60045481565b600080600080925060039150600090505b6001805490508110156106c9573373ffffffffffffffffffffffffffffffffffffffff1660018281548110151561066c57fe5b9060005260206000200160009054906101000a900473ffffffffffffffffffffffffffffffffffffffff1673ffffffffffffffffffffffffffffffffffffffff1614156106bc57600192506106c9565b8080600101915050610639565b600183141561077257816000803373ffffffffffffffffffffffffffffffffffffffff1673ffffffffffffffffffffffffffffffffffffffff1681526020019081526020016000206001016000828254019250508190555060026000803373ffffffffffffffffffffffffffffffffffffffff1673ffffffffffffffffffffffffffffffffffffffff168152602001908152602001600020600301600082825401925050819055505b505050565b60003373ffffffffffffffffffffffffffffffffffffffff16600260009054906101000a900473ffffffffffffffffffffffffffffffffffffffff1673ffffffffffffffffffffffffffffffffffffffff161415156107d557600080fd5b6107dd610ec5565b905090565b60606000808373ffffffffffffffffffffffffffffffffffffffff1673ffffffffffffffffffffffffffffffffffffffff16815260200190815260200160002060020180548060200260200160405190810160405280929190818152602001828054801561086f57602002820191906000526020600020905b81548152602001906001019080831161085b575b50505050509050919050565b60018181548110151561088a57fe5b906000526020600020016000915054906101000a900473ffffffffffffffffffffffffffffffffffffffff1681565b60008060003373ffffffffffffffffffffffffffffffffffffffff16600260009054906101000a900473ffffffffffffffffffffffffffffffffffffffff1673ffffffffffffffffffffffffffffffffffffffff1614151561091a57600080fd5b610922610ec5565b91508173ffffffffffffffffffffffffffffffffffffffff16600260009054906101000a900473ffffffffffffffffffffffffffffffffffffffff1673ffffffffffffffffffffffffffffffffffffffff1614156109ff57600260009054906101000a900473ffffffffffffffffffffffffffffffffffffffff1673ffffffffffffffffffffffffffffffffffffffff166108fc3073ffffffffffffffffffffffffffffffffffffffff16319081150290604051600060405180830381858888f193505050501580156109f9573d6000803e3d6000fd5b50610ad0565b60055490508173ffffffffffffffffffffffffffffffffffffffff166108fc829081150290604051600060405180830381858888f19350505050158015610a4a573d6000803e3d6000fd5b50600260009054906101000a900473ffffffffffffffffffffffffffffffffffffffff1673ffffffffffffffffffffffffffffffffffffffff166108fc6005543073ffffffffffffffffffffffffffffffffffffffff1631039081150290604051600060405180830381858888f19350505050158015610ace573d6000803e3d6000fd5b505b3073ffffffffffffffffffffffffffffffffffffffff16319250505090565b6000600354905090565b60055481565b60006020528060005260406000206000915090508060000160009054906101000a900473ffffffffffffffffffffffffffffffffffffffff16908060010154908060030154908060040154905084565b600260009054906101000a900473ffffffffffffffffffffffffffffffffffffffff1681565b60008060008373ffffffffffffffffffffffffffffffffffffffff1673ffffffffffffffffffffffffffffffffffffffff168152602001908152602001600020600101549050919050565b336000803373ffffffffffffffffffffffffffffffffffffffff1673ffffffffffffffffffffffffffffffffffffffff16815260200190815260200160002060000160006101000a81548173ffffffffffffffffffffffffffffffffffffffff021916908373ffffffffffffffffffffffffffffffffffffffff16021790555060008060003373ffffffffffffffffffffffffffffffffffffffff1673ffffffffffffffffffffffffffffffffffffffff1681526020019081526020016000206001018190555060013390806001815401808255809150509060018203906000526020600020016000909192909190916101000a81548173ffffffffffffffffffffffffffffffffffffffff021916908373ffffffffffffffffffffffffffffffffffffffff16021790555050565b620186a081108015610d42575060008060003373ffffffffffffffffffffffffffffffffffffffff1673ffffffffffffffffffffffffffffffffffffffff16815260200190815260200160002060010154115b8015610d9057506004546000803373ffffffffffffffffffffffffffffffffffffffff1673ffffffffffffffffffffffffffffffffffffffff16815260200190815260200160002060030154115b8015610db457503073ffffffffffffffffffffffffffffffffffffffff1631600554115b8015610dfa5750600260009054906101000a900473ffffffffffffffffffffffffffffffffffffffff1673ffffffffffffffffffffffffffffffffffffffff1631600554115b1515610e0557600080fd5b6000803373ffffffffffffffffffffffffffffffffffffffff1673ffffffffffffffffffffffffffffffffffffffff1681526020019081526020016000206002018190806001815401808255809150509060018203906000526020600020016000909192909190915055506000803373ffffffffffffffffffffffffffffffffffffffff1673ffffffffffffffffffffffffffffffffffffffff168152602001908152602001600020600101600081548092919060019003919050555050565b600080600080600092505b600180549050831015610ff257600080600185815481101515610eef57fe5b9060005260206000200160009054906101000a900473ffffffffffffffffffffffffffffffffffffffff1673ffffffffffffffffffffffffffffffffffffffff1673ffffffffffffffffffffffffffffffffffffffff1681526020019081526020016000209150600090505b8160020180549050811015610fe557600354600019168260020182815481101515610f8257fe5b9060005260206000200154604051808281526020019150506040518091039020600019161415610fd8578160000160009054906101000a900473ffffffffffffffffffffffffffffffffffffffff169350611018565b8080600101915050610f5b565b8280600101935050610ed0565b600260009054906101000a900473ffffffffffffffffffffffffffffffffffffffff1693505b50505090565b60008060008373ffffffffffffffffffffffffffffffffffffffff1673ffffffffffffffffffffffffffffffffffffffff1681526020019081526020016000206004015490509190505600a165627a7a7230582042f6be2b6b0f181f1c37729d2a051c9d9075f8f02debe00ddad980764bd7bc760029",
  "source": "pragma solidity ^0.4.17;\n//the version\n\ncontract Lottery{\n    //user information\n    struct user\n    {\n        address userAddress;\n        uint coinBuy;\n        uint[] guess;\n        uint priority;\n        uint ID;\n    }\n    \n    //list of userAddress\n    mapping(address => user) public users;\n    \n    address[] public userAddress;\n    address public lotterySupplier;\n    bytes32 WinningNumSha3;\n    uint public priorityitLimit = 5;\n    uint public BetETH = 1;\n    \n    // constructor function\n   function Lottery(uint _Guess)\n    {\n        lotterySupplier = msg.sender;\n        WinningNumSha3 = keccak256(_Guess);\n    }\n    \n    //see the number of coinBuy\n    function userCoin(address _user) view public returns(uint)\n    {\n        return users[_user].coinBuy;\n    }\n    //see the guess number\n    function userGuess(address _user) view public returns(uint[]){\n        return users[_user].guess;\n    }\n    //see the user ID\n    function userID(address _user) view public returns(uint){\n        return users[_user].ID;\n    }\n    //see the priority\n    function userPriority(address _user) view public returns(uint)\n    {\n        return users[_user].priority;\n    }\n    //see the WinningNum\n    function winningGuess() view public returns(bytes32){\n        return WinningNumSha3;\n    }\n    function debug() view public returns (uint)\n    {\n        return userAddress.length;\n    }\n    // to add a new user\n    function makeUser() public{\n        users[msg.sender].userAddress = msg.sender;\n        users[msg.sender].coinBuy = 0;\n        userAddress.push(msg.sender);\n    }\n    \n    //add coin to user that call contract\n    function addCoinsAndPriority() payable{\n        uint current = 0;\n        uint coinsToAdd = 3;\n        \n        for(uint i = 0;i < userAddress.length;i++)\n        {\n            if(userAddress[i]==msg.sender)\n            {\n                current = 1;\n                break;\n            }\n        }\n        // adding coin if the user appear in the array\n        if(current==1)\n        {\n            users[msg.sender].coinBuy += coinsToAdd;\n            users[msg.sender].priority += 2;\n        }\n    }\n    \n    //to add user guesses\n    function getGuess(uint _userGuess)\n    {\n        require(_userGuess<100000 && users[msg.sender].coinBuy>0 && users[msg.sender].priority > priorityitLimit && BetETH>address(this).balance && BetETH>lotterySupplier.balance);\n        users[msg.sender].guess.push(_userGuess);\n        users[msg.sender].coinBuy--;\n    }\n    \n    function closeGame() returns(address){\n        require(lotterySupplier==msg.sender);\n        return winnerAddress();\n    }\n    // returns the address of the winner\n    function winnerAddress() returns(address){\n        for(uint i = 0;i < userAddress.length;i++)\n        {\n            user _user = users[userAddress[i]];\n            \n            for(uint j = 0;j < _user.guess.length;j++)\n            {\n                if(keccak256(_user.guess[j])==WinningNumSha3)\n                {\n                    return _user.userAddress;\n                }\n            }\n        }\n        //the owner win if no one guess sucessfully\n        return lotterySupplier;\n    }\n    \n    // send 60% of the ETH in contract\n    function getPrice() returns (uint){\n        require(lotterySupplier == msg.sender);\n        address winner = winnerAddress();\n        if(lotterySupplier == winner){\n            lotterySupplier.transfer(address(this).balance);\n        }else\n        {\n            //returns the half the balance of the contract\n            uint toTransfer = BetETH;\n            winner.transfer(toTransfer);\n            lotterySupplier.transfer(address(this).balance -  BetETH);\n            //transfer \n        }\n        return address(this).balance;\n    }\n    \n}",
  "sourcePath": "C:\\Users\\Administrator\\Desktop\\Lottery\\contracts\\Lottery.sol",
  "compiler": {
    "name": "solc",
    "version": "0.4.24+commit.e67f0147.Emscripten.clang"
  },
  "schemaVersion": "2.0.1",
  "updatedAt": "2018-12-16T06:18:07.865Z"
}