{
  "contractName": "MetaCoin",
  "abi": [
    {
      "constant": true,
      "inputs": [],
      "name": "_p_id",
      "outputs": [
        {
          "name": "",
          "type": "uint256"
        }
      ],
      "payable": false,
      "stateMutability": "view",
      "type": "function"
    },
    {
      "constant": true,
      "inputs": [
        {
          "name": "",
          "type": "uint256"
        }
      ],
      "name": "participants",
      "outputs": [
        {
          "name": "_userName",
          "type": "string"
        },
        {
          "name": "_passWord",
          "type": "string"
        },
        {
          "name": "_userType",
          "type": "string"
        },
        {
          "name": "_userAddress",
          "type": "address"
        }
      ],
      "payable": false,
      "stateMutability": "view",
      "type": "function"
    },
    {
      "constant": true,
      "inputs": [],
      "name": "_t_id",
      "outputs": [
        {
          "name": "",
          "type": "uint256"
        }
      ],
      "payable": false,
      "stateMutability": "view",
      "type": "function"
    },
    {
      "constant": true,
      "inputs": [],
      "name": "_u_id",
      "outputs": [
        {
          "name": "",
          "type": "uint256"
        }
      ],
      "payable": false,
      "stateMutability": "view",
      "type": "function"
    },
    {
      "constant": true,
      "inputs": [
        {
          "name": "",
          "type": "uint256"
        }
      ],
      "name": "products",
      "outputs": [
        {
          "name": "_product_name",
          "type": "string"
        },
        {
          "name": "_product_cost",
          "type": "uint256"
        },
        {
          "name": "_product_specs",
          "type": "string"
        },
        {
          "name": "_product_review",
          "type": "string"
        },
        {
          "name": "_product_owner",
          "type": "address"
        },
        {
          "name": "_manufacture_date",
          "type": "uint256"
        }
      ],
      "payable": false,
      "stateMutability": "view",
      "type": "function"
    },
    {
      "constant": true,
      "inputs": [
        {
          "name": "",
          "type": "uint256"
        }
      ],
      "name": "tracks",
      "outputs": [
        {
          "name": "_product_id",
          "type": "uint256"
        },
        {
          "name": "_owner_id",
          "type": "uint256"
        },
        {
          "name": "_product_owner",
          "type": "address"
        },
        {
          "name": "_timeStamp",
          "type": "uint256"
        }
      ],
      "payable": false,
      "stateMutability": "view",
      "type": "function"
    },
    {
      "constant": false,
      "inputs": [
        {
          "name": "name",
          "type": "string"
        },
        {
          "name": "pass",
          "type": "string"
        },
        {
          "name": "utype",
          "type": "string"
        }
      ],
      "name": "createParticipant",
      "outputs": [
        {
          "name": "",
          "type": "uint256"
        }
      ],
      "payable": false,
      "stateMutability": "nonpayable",
      "type": "function"
    },
    {
      "constant": false,
      "inputs": [
        {
          "name": "name",
          "type": "string"
        },
        {
          "name": "pass",
          "type": "string"
        },
        {
          "name": "utype",
          "type": "string"
        }
      ],
      "name": "createParticipantAndStake",
      "outputs": [
        {
          "name": "",
          "type": "uint256"
        }
      ],
      "payable": true,
      "stateMutability": "payable",
      "type": "function"
    },
    {
      "constant": false,
      "inputs": [
        {
          "name": "own_id",
          "type": "uint256"
        },
        {
          "name": "name",
          "type": "string"
        },
        {
          "name": "p_cost",
          "type": "uint256"
        },
        {
          "name": "p_specs",
          "type": "string"
        },
        {
          "name": "p_review",
          "type": "string"
        }
      ],
      "name": "newProduct",
      "outputs": [
        {
          "name": "",
          "type": "uint256"
        }
      ],
      "payable": false,
      "stateMutability": "nonpayable",
      "type": "function"
    },
    {
      "constant": false,
      "inputs": [
        {
          "name": "p_id",
          "type": "uint256"
        }
      ],
      "name": "getParticipant",
      "outputs": [
        {
          "name": "",
          "type": "string"
        },
        {
          "name": "",
          "type": "string"
        },
        {
          "name": "",
          "type": "address"
        }
      ],
      "payable": false,
      "stateMutability": "nonpayable",
      "type": "function"
    },
    {
      "constant": false,
      "inputs": [
        {
          "name": "prod_id",
          "type": "uint256"
        }
      ],
      "name": "getProduct_details",
      "outputs": [
        {
          "name": "",
          "type": "string"
        },
        {
          "name": "",
          "type": "uint256"
        },
        {
          "name": "",
          "type": "string"
        },
        {
          "name": "",
          "type": "string"
        },
        {
          "name": "",
          "type": "uint256"
        }
      ],
      "payable": false,
      "stateMutability": "nonpayable",
      "type": "function"
    },
    {
      "constant": false,
      "inputs": [
        {
          "name": "id",
          "type": "uint256"
        },
        {
          "name": "pid",
          "type": "uint256"
        }
      ],
      "name": "transfer_participant",
      "outputs": [
        {
          "name": "",
          "type": "string"
        },
        {
          "name": "",
          "type": "string"
        }
      ],
      "payable": false,
      "stateMutability": "nonpayable",
      "type": "function"
    },
    {
      "constant": false,
      "inputs": [
        {
          "name": "user1_id",
          "type": "uint256"
        },
        {
          "name": "user2_id",
          "type": "uint256"
        },
        {
          "name": "prod_id",
          "type": "uint256"
        }
      ],
      "name": "transferOwnership_product",
      "outputs": [
        {
          "name": "",
          "type": "bool"
        }
      ],
      "payable": false,
      "stateMutability": "nonpayable",
      "type": "function"
    },
    {
      "constant": false,
      "inputs": [
        {
          "name": "trck_id",
          "type": "uint256"
        }
      ],
      "name": "getProduct_trackindex",
      "outputs": [
        {
          "name": "",
          "type": "uint256"
        },
        {
          "name": "",
          "type": "uint256"
        },
        {
          "name": "",
          "type": "address"
        },
        {
          "name": "",
          "type": "uint256"
        }
      ],
      "payable": false,
      "stateMutability": "nonpayable",
      "type": "function"
    },
    {
      "constant": false,
      "inputs": [
        {
          "name": "uid",
          "type": "uint256"
        },
        {
          "name": "uname",
          "type": "string"
        },
        {
          "name": "pass",
          "type": "string"
        },
        {
          "name": "utype",
          "type": "string"
        }
      ],
      "name": "userLogin",
      "outputs": [
        {
          "name": "",
          "type": "bool"
        }
      ],
      "payable": false,
      "stateMutability": "nonpayable",
      "type": "function"
    }
  ],
  "bytecode": "0x6080604052600080556000600155600060025534801561001e57600080fd5b506127cc8061002e6000396000f3006080604052600436106100db576000357c0100000000000000000000000000000000000000000000000000000000900463ffffffff1680631b9db2ef146100e057806326d20f94146102255780633248cfc41461025057806335c1d349146103dc5780634bdff7a31461058d57806351d6536a146106a4578063567b3a7a146107c05780635fe73f3f146107eb5780637acc0b2014610816578063a2e34586146109d5578063a6822b2a14610a57578063ad51c3d614610ab0578063d180c2a414610bcd578063f7e37f8c14610cc9578063fcd48d3114610dd2575b600080fd5b3480156100ec57600080fd5b5061010b60048036038101908080359060200190929190505050610e54565b6040518080602001806020018473ffffffffffffffffffffffffffffffffffffffff1673ffffffffffffffffffffffffffffffffffffffff168152602001838103835286818151815260200191508051906020019080838360005b83811015610181578082015181840152602081019050610166565b50505050905090810190601f1680156101ae5780820380516001836020036101000a031916815260200191505b50838103825285818151815260200191508051906020019080838360005b838110156101e75780820151818401526020810190506101cc565b50505050905090810190601f1680156102145780820380516001836020036101000a031916815260200191505b509550505050505060405180910390f35b34801561023157600080fd5b5061023a611001565b6040518082815260200191505060405180910390f35b34801561025c57600080fd5b5061027b60048036038101908080359060200190929190505050611007565b60405180806020018681526020018060200180602001858152602001848103845289818151815260200191508051906020019080838360005b838110156102cf5780820151818401526020810190506102b4565b50505050905090810190601f1680156102fc5780820380516001836020036101000a031916815260200191505b50848103835287818151815260200191508051906020019080838360005b8381101561033557808201518184015260208101905061031a565b50505050905090810190601f1680156103625780820380516001836020036101000a031916815260200191505b50848103825286818151815260200191508051906020019080838360005b8381101561039b578082015181840152602081019050610380565b50505050905090810190601f1680156103c85780820380516001836020036101000a031916815260200191505b509850505050505050505060405180910390f35b3480156103e857600080fd5b5061040760048036038101908080359060200190929190505050611267565b604051808060200180602001806020018573ffffffffffffffffffffffffffffffffffffffff1673ffffffffffffffffffffffffffffffffffffffff168152602001848103845288818151815260200191508051906020019080838360005b83811015610481578082015181840152602081019050610466565b50505050905090810190601f1680156104ae5780820380516001836020036101000a031916815260200191505b50848103835287818151815260200191508051906020019080838360005b838110156104e75780820151818401526020810190506104cc565b50505050905090810190601f1680156105145780820380516001836020036101000a031916815260200191505b50848103825286818151815260200191508051906020019080838360005b8381101561054d578082015181840152602081019050610532565b50505050905090810190601f16801561057a5780820380516001836020036101000a031916815260200191505b5097505050505050505060405180910390f35b34801561059957600080fd5b5061068a60048036038101908080359060200190929190803590602001908201803590602001908080601f0160208091040260200160405190810160405280939291908181526020018383808284378201915050505050509192919290803590602001908201803590602001908080601f0160208091040260200160405190810160405280939291908181526020018383808284378201915050505050509192919290803590602001908201803590602001908080601f016020809104026020016040519081016040528093929190818152602001838380828437820191505050505050919291929050505061147f565b604051808215151515815260200191505060405180910390f35b3480156106b057600080fd5b506106d96004803603810190808035906020019092919080359060200190929190505050611766565b604051808060200180602001838103835285818151815260200191508051906020019080838360005b8381101561071d578082015181840152602081019050610702565b50505050905090810190601f16801561074a5780820380516001836020036101000a031916815260200191505b50838103825284818151815260200191508051906020019080838360005b83811015610783578082015181840152602081019050610768565b50505050905090810190601f1680156107b05780820380516001836020036101000a031916815260200191505b5094505050505060405180910390f35b3480156107cc57600080fd5b506107d56118cc565b6040518082815260200191505060405180910390f35b3480156107f757600080fd5b506108006118d2565b6040518082815260200191505060405180910390f35b34801561082257600080fd5b50610841600480360381019080803590602001909291905050506118d8565b604051808060200187815260200180602001806020018673ffffffffffffffffffffffffffffffffffffffff1673ffffffffffffffffffffffffffffffffffffffff16815260200185815260200184810384528a818151815260200191508051906020019080838360005b838110156108c75780820151818401526020810190506108ac565b50505050905090810190601f1680156108f45780820380516001836020036101000a031916815260200191505b50848103835288818151815260200191508051906020019080838360005b8381101561092d578082015181840152602081019050610912565b50505050905090810190601f16801561095a5780820380516001836020036101000a031916815260200191505b50848103825287818151815260200191508051906020019080838360005b83811015610993578082015181840152602081019050610978565b50505050905090810190601f1680156109c05780820380516001836020036101000a031916815260200191505b50995050505050505050505060405180910390f35b3480156109e157600080fd5b50610a0060048036038101908080359060200190929190505050611afc565b604051808581526020018481526020018373ffffffffffffffffffffffffffffffffffffffff1673ffffffffffffffffffffffffffffffffffffffff16815260200182815260200194505050505060405180910390f35b348015610a6357600080fd5b50610a96600480360381019080803590602001909291908035906020019092919080359060200190929190505050611b4c565b604051808215151515815260200191505060405180910390f35b348015610abc57600080fd5b50610bb760048036038101908080359060200190929190803590602001908201803590602001908080601f016020809104026020016040519081016040528093929190818152602001838380828437820191505050505050919291929080359060200190929190803590602001908201803590602001908080601f0160208091040260200160405190810160405280939291908181526020018383808284378201915050505050509192919290803590602001908201803590602001908080601f01602080910402602001604051908101604052809392919081815260200183838082843782019150505050505091929192905050506122b2565b6040518082815260200191505060405180910390f35b610cb3600480360381019080803590602001908201803590602001908080601f0160208091040260200160405190810160405280939291908181526020018383808284378201915050505050509192919290803590602001908201803590602001908080601f0160208091040260200160405190810160405280939291908181526020018383808284378201915050505050509192919290803590602001908201803590602001908080601f01602080910402602001604051908101604052809392919081815260200183838082843782019150505050505091929192905050506124ac565b6040518082815260200191505060405180910390f35b348015610cd557600080fd5b50610dbc600480360381019080803590602001908201803590602001908080601f0160208091040260200160405190810160405280939291908181526020018383808284378201915050505050509192919290803590602001908201803590602001908080601f0160208091040260200160405190810160405280939291908181526020018383808284378201915050505050509192919290803590602001908201803590602001908080601f01602080910402602001604051908101604052809392919081815260200183838082843782019150505050505091929192905050506125a3565b6040518082815260200191505060405180910390f35b348015610dde57600080fd5b50610dfd6004803603810190808035906020019092919050505061269a565b604051808581526020018481526020018373ffffffffffffffffffffffffffffffffffffffff1673ffffffffffffffffffffffffffffffffffffffff16815260200182815260200194505050505060405180910390f35b606080600060056000858152602001908152602001600020600001600560008681526020019081526020016000206002016005600087815260200190815260200160002060030160009054906101000a900473ffffffffffffffffffffffffffffffffffffffff16828054600181600116156101000203166002900480601f016020809104026020016040519081016040528092919081815260200182805460018160011615610100020316600290048015610f515780601f10610f2657610100808354040283529160200191610f51565b820191906000526020600020905b815481529060010190602001808311610f3457829003601f168201915b50505050509250818054600181600116156101000203166002900480601f016020809104026020016040519081016040528092919081815260200182805460018160011615610100020316600290048015610fed5780601f10610fc257610100808354040283529160200191610fed565b820191906000526020600020905b815481529060010190602001808311610fd057829003601f168201915b505050505091509250925092509193909250565b60005481565b60606000606080600060046000878152602001908152602001600020600001600460008881526020019081526020016000206001015460046000898152602001908152602001600020600201600460008a8152602001908152602001600020600301600460008b815260200190815260200160002060050154848054600181600116156101000203166002900480601f0160208091040260200160405190810160405280929190818152602001828054600181600116156101000203166002900480156111155780601f106110ea57610100808354040283529160200191611115565b820191906000526020600020905b8154815290600101906020018083116110f857829003601f168201915b50505050509450828054600181600116156101000203166002900480601f0160208091040260200160405190810160405280929190818152602001828054600181600116156101000203166002900480156111b15780601f10611186576101008083540402835291602001916111b1565b820191906000526020600020905b81548152906001019060200180831161119457829003601f168201915b50505050509250818054600181600116156101000203166002900480601f01602080910402602001604051908101604052809291908181526020018280546001816001161561010002031660029004801561124d5780601f106112225761010080835404028352916020019161124d565b820191906000526020600020905b81548152906001019060200180831161123057829003601f168201915b505050505091509450945094509450945091939590929450565b6005602052806000526040600020600091509050806000018054600181600116156101000203166002900480601f0160208091040260200160405190810160405280929190818152602001828054600181600116156101000203166002900480156113135780601f106112e857610100808354040283529160200191611313565b820191906000526020600020905b8154815290600101906020018083116112f657829003601f168201915b505050505090806001018054600181600116156101000203166002900480601f0160208091040260200160405190810160405280929190818152602001828054600181600116156101000203166002900480156113b15780601f10611386576101008083540402835291602001916113b1565b820191906000526020600020905b81548152906001019060200180831161139457829003601f168201915b505050505090806002018054600181600116156101000203166002900480601f01602080910402602001604051908101604052809291908181526020018280546001816001161561010002031660029004801561144f5780601f106114245761010080835404028352916020019161144f565b820191906000526020600020905b81548152906001019060200180831161143257829003601f168201915b5050505050908060030160009054906101000a900473ffffffffffffffffffffffffffffffffffffffff16905084565b6000816040518082805190602001908083835b6020831015156114b75780518252602082019150602081019050602083039250611492565b6001836020036101000a0380198251168184511680821785525050505050509050019150506040518091039020600019166005600087815260200190815260200160002060020160405180828054600181600116156101000203166002900480156115595780601f10611537576101008083540402835291820191611559565b820191906000526020600020905b815481529060010190602001808311611545575b5050915050604051809103902060001916141561175957836040518082805190602001908083835b6020831015156115a65780518252602082019150602081019050602083039250611581565b6001836020036101000a0380198251168184511680821785525050505050509050019150506040518091039020600019166005600087815260200190815260200160002060000160405180828054600181600116156101000203166002900480156116485780601f10611626576101008083540402835291820191611648565b820191906000526020600020905b815481529060010190602001808311611634575b5050915050604051809103902060001916141561175857826040518082805190602001908083835b6020831015156116955780518252602082019150602081019050602083039250611670565b6001836020036101000a0380198251168184511680821785525050505050509050019150506040518091039020600019166005600087815260200190815260200160002060010160405180828054600181600116156101000203166002900480156117375780601f10611715576101008083540402835291820191611737565b820191906000526020600020905b815481529060010190602001808311611723575b50509150506040518091039020600019161415611757576001905061175e565b5b5b600090505b949350505050565b60608060006005600086815260200190815260200160002090508060020181600001818054600181600116156101000203166002900480601f01602080910402602001604051908101604052809291908181526020018280546001816001161561010002031660029004801561181d5780601f106117f25761010080835404028352916020019161181d565b820191906000526020600020905b81548152906001019060200180831161180057829003601f168201915b50505050509150808054600181600116156101000203166002900480601f0160208091040260200160405190810160405280929190818152602001828054600181600116156101000203166002900480156118b95780601f1061188e576101008083540402835291602001916118b9565b820191906000526020600020905b81548152906001019060200180831161189c57829003601f168201915b5050505050905092509250509250929050565b60025481565b60015481565b6004602052806000526040600020600091509050806000018054600181600116156101000203166002900480601f0160208091040260200160405190810160405280929190818152602001828054600181600116156101000203166002900480156119845780601f1061195957610100808354040283529160200191611984565b820191906000526020600020905b81548152906001019060200180831161196757829003601f168201915b505050505090806001015490806002018054600181600116156101000203166002900480601f016020809104026020016040519081016040528092919081815260200182805460018160011615610100020316600290048015611a285780601f106119fd57610100808354040283529160200191611a28565b820191906000526020600020905b815481529060010190602001808311611a0b57829003601f168201915b505050505090806003018054600181600116156101000203166002900480601f016020809104026020016040519081016040528092919081815260200182805460018160011615610100020316600290048015611ac65780601f10611a9b57610100808354040283529160200191611ac6565b820191906000526020600020905b815481529060010190602001808311611aa957829003601f168201915b5050505050908060040160009054906101000a900473ffffffffffffffffffffffffffffffffffffffff16908060050154905086565b60036020528060005260406000206000915090508060000154908060010154908060020160009054906101000a900473ffffffffffffffffffffffffffffffffffffffff16908060030154905084565b600080600080846004600082815260200190815260200160002060040160009054906101000a900473ffffffffffffffffffffffffffffffffffffffff1673ffffffffffffffffffffffffffffffffffffffff163373ffffffffffffffffffffffffffffffffffffffff16141515611bc357600080fd5b6005600089815260200190815260200160002093506005600088815260200190815260200160002092506002600081548092919060010191905055915060405180807f4d616e7566616374757265720000000000000000000000000000000000000000815250600c019050604051809103902060001916846002016040518082805460018160011615610100020316600290048015611c995780601f10611c77576101008083540402835291820191611c99565b820191906000526020600020905b815481529060010190602001808311611c85575b5050915050604051809103902060001916148015611d5e575060405180807f537570706c6965720000000000000000000000000000000000000000000000008152506008019050604051809103902060001916836002016040518082805460018160011615610100020316600290048015611d4b5780601f10611d29576101008083540402835291820191611d4b565b820191906000526020600020905b815481529060010190602001808311611d37575b5050915050604051809103902060001916145b15611e36578560036000848152602001908152602001600020600001819055508660036000848152602001908152602001600020600101819055504260036000848152602001908152602001600020600301819055508260030160009054906101000a900473ffffffffffffffffffffffffffffffffffffffff166004600088815260200190815260200160002060040160006101000a81548173ffffffffffffffffffffffffffffffffffffffff021916908373ffffffffffffffffffffffffffffffffffffffff160217905550600194506122a7565b60405180807f537570706c6965720000000000000000000000000000000000000000000000008152506008019050604051809103902060001916846002016040518082805460018160011615610100020316600290048015611ecf5780601f10611ead576101008083540402835291820191611ecf565b820191906000526020600020905b815481529060010190602001808311611ebb575b5050915050604051809103902060001916148015611f94575060405180807f537570706c6965720000000000000000000000000000000000000000000000008152506008019050604051809103902060001916836002016040518082805460018160011615610100020316600290048015611f815780601f10611f5f576101008083540402835291820191611f81565b820191906000526020600020905b815481529060010190602001808311611f6d575b5050915050604051809103902060001916145b1561206c578560036000848152602001908152602001600020600001819055508660036000848152602001908152602001600020600101819055504260036000848152602001908152602001600020600301819055508260030160009054906101000a900473ffffffffffffffffffffffffffffffffffffffff166004600088815260200190815260200160002060040160006101000a81548173ffffffffffffffffffffffffffffffffffffffff021916908373ffffffffffffffffffffffffffffffffffffffff160217905550600194506122a7565b60405180807f537570706c69657200000000000000000000000000000000000000000000000081525060080190506040518091039020600019168460020160405180828054600181600116156101000203166002900480156121055780601f106120e3576101008083540402835291820191612105565b820191906000526020600020905b8154815290600101906020018083116120f1575b50509150506040518091039020600019161480156121ca575060405180807f437573746f6d657200000000000000000000000000000000000000000000000081525060080190506040518091039020600019168360020160405180828054600181600116156101000203166002900480156121b75780601f106121955761010080835404028352918201916121b7565b820191906000526020600020905b8154815290600101906020018083116121a3575b5050915050604051809103902060001916145b156122a2578560036000848152602001908152602001600020600001819055508660036000848152602001908152602001600020600101819055504260036000848152602001908152602001600020600301819055508260030160009054906101000a900473ffffffffffffffffffffffffffffffffffffffff166004600088815260200190815260200160002060040160006101000a81548173ffffffffffffffffffffffffffffffffffffffff021916908373ffffffffffffffffffffffffffffffffffffffff160217905550600194506122a7565b600094505b505050509392505050565b60008060405180807f4d616e7566616374757265720000000000000000000000000000000000000000815250600c0190506040518091039020600019166005600089815260200190815260200160002060020160405180828054600181600116156101000203166002900480156123605780601f1061233e576101008083540402835291820191612360565b820191906000526020600020905b81548152906001019060200180831161234c575b5050915050604051809103902060001916141561249d57600080815480929190600101919050559050856004600083815260200190815260200160002060000190805190602001906123b39291906126fb565b50846004600083815260200190815260200160002060010181905550836004600083815260200190815260200160002060020190805190602001906123f99291906126fb565b50826004600083815260200190815260200160002060030190805190602001906124249291906126fb565b50426004600083815260200190815260200160002060050181905550336004600083815260200190815260200160002060040160006101000a81548173ffffffffffffffffffffffffffffffffffffffff021916908373ffffffffffffffffffffffffffffffffffffffff1602179055508091506124a2565b600091505b5095945050505050565b60008060016000815480929190600101919050559050846005600083815260200190815260200160002060000190805190602001906124ec9291906126fb565b50836005600083815260200190815260200160002060010190805190602001906125179291906126fb565b50826005600083815260200190815260200160002060020190805190602001906125429291906126fb565b50336005600083815260200190815260200160002060030160006101000a81548173ffffffffffffffffffffffffffffffffffffffff021916908373ffffffffffffffffffffffffffffffffffffffff160217905550809150509392505050565b60008060016000815480929190600101919050559050846005600083815260200190815260200160002060000190805190602001906125e39291906126fb565b508360056000838152602001908152602001600020600101908051906020019061260e9291906126fb565b50826005600083815260200190815260200160002060020190805190602001906126399291906126fb565b50336005600083815260200190815260200160002060030160006101000a81548173ffffffffffffffffffffffffffffffffffffffff021916908373ffffffffffffffffffffffffffffffffffffffff160217905550809150509392505050565b6000806000806000600360008781526020019081526020016000209050806000015481600101548260020160009054906101000a900473ffffffffffffffffffffffffffffffffffffffff1683600301549450945094509450509193509193565b828054600181600116156101000203166002900490600052602060002090601f016020900481019282601f1061273c57805160ff191683800117855561276a565b8280016001018555821561276a579182015b8281111561276957825182559160200191906001019061274e565b5b509050612777919061277b565b5090565b61279d91905b80821115612799576000816000905550600101612781565b5090565b905600a165627a7a72305820bb3154ee4f97ec5e92330a7893eef153e2fb5843f75d97606c08a129fd88583b0029",
  "source": "pragma solidity ^0.4.24;\n\nimport \"./ConvertLib.sol\";\n\n// This is just a simple example of a coin-like contract.\n// It is not standards compatible and cannot be expected to talk to other\n// coin/token contracts. If you want to create a standards-compliant\n// token, see: https://github.com/ConsenSys/Tokens. Cheers!\n\ncontract MetaCoin {\n\n//\tpragma solidity ^0.4.25;\n\n//contract supply_Chain {\n    uint public _p_id =0;\n    uint public _u_id =0;\n    uint public _t_id=0;\n    struct track_product {\n        uint _product_id;\n        uint _owner_id;\n        address _product_owner;\n        uint _timeStamp;\n    }\n    mapping(uint => track_product) public tracks;\n    \n    struct product {\n        string _product_name;\n        uint _product_cost;\n        string _product_specs;\n        string _product_review;\n        address _product_owner;\n        uint _manufacture_date;\n       // uint _expiry_date;\n    }\n    \n    mapping(uint => product) public products;\n    \n    struct participant {\n        string _userName;\n        string _passWord;\n        string _userType;\n        address _userAddress;\n        //uint rating =0;\n    }\n    mapping(uint => participant) public participants;\n    \n    function createParticipant(string name ,string pass ,string utype) public returns (uint){\n        uint user_id = _u_id++;\n        participants[user_id]._userName = name ;\n        participants[user_id]._passWord = pass;\n        participants[user_id]._userType = utype;\n        participants[user_id]._userAddress = msg.sender;\n        \n        return user_id;\n    }\n\n\tfunction createParticipantAndStake(string name ,string pass ,string utype) public payable returns (uint){\n        uint user_id = _u_id++;\n        participants[user_id]._userName = name ;\n        participants[user_id]._passWord = pass;\n        participants[user_id]._userType = utype;\n        participants[user_id]._userAddress = msg.sender;\n        \n        return user_id;\n    }\n\n    \n    function newProduct(uint own_id, string name ,uint p_cost ,string p_specs ,string p_review) returns (uint) {\n        if(keccak256(participants[own_id]._userType) == keccak256(\"Manufacturer\")) {\n            uint product_id = _p_id++;\n           \n            \n            products[product_id]._product_name = name;\n            products[product_id]._product_cost = p_cost;\n            products[product_id]._product_specs =p_specs;\n            products[product_id]._product_review =p_review;\n            products[product_id]._manufacture_date = now;\n            \n            products[product_id]._product_owner = msg.sender;\n            \n            return product_id;\n        }\n        \n       return 0;\n    }\n    function getParticipant(uint p_id) returns (string,string,address) {\n        return (participants[p_id]._userName,participants[p_id]._userType,participants[p_id]._userAddress);\n    }\n    function getProduct_details(uint prod_id) public returns (string,uint,string,string,uint){\n        return (products[prod_id]._product_name,products[prod_id]._product_cost,products[prod_id]._product_specs,products[prod_id]._product_review,products[prod_id]._manufacture_date);\n    }\n    modifier onlyOwner(uint pid) {\n         if(msg.sender != products[pid]._product_owner ) throw;\n         _;\n         \n     }\n     \n    function transfer_participant (uint id,uint pid) returns (string,string){\n        participant  p1 = participants[id];\n        return (p1._userType,p1._userName);\n    }\n    \n    function transferOwnership_product(uint user1_id ,uint user2_id, uint prod_id) onlyOwner(prod_id) public returns(bool) {\n        //require(msg.sender == products[prod_id]._product_owner);\n        participant  p1 = participants[user1_id];\n        participant  p2 = participants[user2_id];\n        //track_product  trk;\n        uint track_id = _t_id++;\n        \n        if(keccak256(p1._userType) == keccak256(\"Manufacturer\") && keccak256(p2._userType)==keccak256(\"Supplier\")){\n           /*trk._product_id = prod_id;\n            //trk._product_owner = p2._address;\n            trk._owner_id = user2_id;\n            trk._timeStamp= now;*/\n            tracks[track_id]._product_id =prod_id;\n            tracks[track_id]._owner_id = user2_id;\n            tracks[track_id]._timeStamp = now;\n            \n            products[prod_id]._product_owner = p2._userAddress;\n            \n            //tracks[track_id]._product_owner = msg.sender;\n            \n            return (true);\n        }\n        if(keccak256(p1._userType) == keccak256(\"Supplier\") && keccak256(p2._userType)==keccak256(\"Supplier\")){\n           /*trk._product_id = prod_id;\n            //trk._product_owner = p2._address;\n            trk._owner_id = user2_id;\n            trk._timeStamp= now;*/\n            tracks[track_id]._product_id =prod_id;\n            tracks[track_id]._owner_id = user2_id;\n            tracks[track_id]._timeStamp = now;\n            \n            products[prod_id]._product_owner = p2._userAddress;\n\n            //tracks[track_id]._product_owner = msg.sender;\n            \n            return (true);\n        }\n        \n        else if(keccak256(p1._userType) == keccak256(\"Supplier\") && keccak256(p2._userType)==keccak256(\"Customer\")){\n\n            /*trk._product_id = prod_id;\n            //trk._product_owner = p2._address;\n            trk._owner_id = user2_id;\n            trk._timeStamp= now;*/\n            tracks[track_id]._product_id =prod_id;\n            tracks[track_id]._owner_id = user2_id;\n            tracks[track_id]._timeStamp = now;\n            \n            products[prod_id]._product_owner = p2._userAddress;\n            \n            return (true);\n        }\n        \n        return (false);\n    }\n   /* function getProduct_track(uint prod_id)  public  returns (track_product[]) {\n        \n        uint track_len = tracks[prod_id].length;\n       string[] memory trcks = new string[](track_len);\n       for(uint i=0;i<track_len;i++){\n           track_product t = tracks[prod_id][i];\n           \n           trcks.push(t._product_id+\"\"+t._owner_id+\"\"+t._product_owner+\"\"+t._timeStamp);\n       }\n       // track_product tk =tracks[prod_id];\n         return trcks;\n    }*/\n    function getProduct_trackindex(uint trck_id)  public  returns (uint,uint,address,uint) {\n        \n        track_product t = tracks[trck_id];\n       \n         return (t._product_id,t._owner_id,t._product_owner,t._timeStamp);\n    }\n    \n   /* function getProduct_chainLength(uint prod_id) public returns (uint) {\n        return tracks.length();\n    }*/\n    \n    function userLogin(uint uid ,string uname ,string pass ,string utype) public returns (bool){\n        if(keccak256(participants[uid]._userType) == keccak256(utype)) {\n            if(keccak256(participants[uid]._userName) == keccak256(uname)) {\n                if(keccak256(participants[uid]._passWord)==keccak256(pass)) {\n                    return (true);\n                }\n            }\n        }\n        \n        return (false);\n    }\n\n\n\t// mapping (address => uint) balances;\n\n\t// event Transfer(address indexed _from, address indexed _to, uint256 _value);\n\n\t// constructor() public {\n\t// \tbalances[tx.origin] = 10000;\n\t// }\n\n\t// function sendCoin(address receiver, uint amount) public returns(bool sufficient) {\n\t// \tif (balances[msg.sender] < amount) return false;\n\t// \tbalances[msg.sender] -= amount;\n\t// \tbalances[receiver] += amount;\n\t// \temit Transfer(msg.sender, receiver, amount);\n\t// \treturn true;\n\t// }\n\n\t// function getBalanceInEth(address addr) public view returns(uint){\n\t// \treturn ConvertLib.convert(getBalance(addr),2);\n\t// }\n\n\t// function getBalance(address addr) public view returns(uint) {\n\t// \treturn balances[addr];\n\t// }\n}\n",
  "sourcePath": "C:\\DEVELOPMENT\\TrackGoods\\contracts\\MetaCoin.sol",
  "compiler": {
    "name": "solc",
    "version": "0.4.24+commit.e67f0147.Emscripten.clang"
  },
  "schemaVersion": "2.0.1",
  "updatedAt": "2018-12-15T21:53:47.707Z"
}